:100000000C9456000C9473000C9473000C947300C1
:100010000C9473000C9473000C9473000C94730094
:100020000C9473000C9473000C9473000C94730084
:100030000C9473000C9473000C9473000C94730074
:100040000C9473000C9473000C9473000C94730064
:100050000C9473000C9473000C9473000C94730054
:100060000C9473000C9473000C9473000C94730044
:100070000C9473000C9473000C9473000C94730034
:100080000C9473000C9473000C9473000C94730024
:100090000C9475000C9473000C9473000C94730012
:1000A0000C9473000C9473000C94730011241FBE05
:1000B000CFEFDAE0DEBFCDBF11E0A0E0B1E0ECEAC7
:1000C000F3E002C005900D92A230B107D9F721E00C
:1000D000A2E0B1E001C01D92AE32B207E1F70E948A
:1000E00044010C94D4010C9400001F920F920FB69F
:1000F0000F9211241F932F933F934F935F936F930E
:100100007F938F939F93AF93BF93EF93FF93CF937F
:10011000DF931F92CDB7DEB78091B900887F803A18
:1001200009F44AC060F4803601F1803829F1811168
:1001300021C085E080930B0110920A011BC0883B0F
:1001400009F479C0803C09F49BC0883A99F4809105
:1001500000018B3008F066C0E0910001F0E0EE5F36
:10016000FE4F80818093BB0005C010922D018FEF60
:100170008093000185EC85C080912D0181110AC01A
:100180008091BB008093000180912D018F5F80934F
:100190002D01F0CF809100018B30B0F780912D01BF
:1001A000813290F7E0912D01E150FF0B8091BB006F
:1001B000E35FFE4F8083E8CF1FB7F8948091000182
:1001C0008B3050F540912D0141508091000150E05D
:1001D000840F952F911D0C97FCF48091000190E005
:1001E0006DE071E08E5F9E4F0E94CB0110920B017B
:1001F0001FBF10922D018FEF80930001198289811A
:10020000803208F0B7CFE981F0E0E35FFE4F108263
:1002100089818F5F8983F3CF86E080930B011092F1
:100220000A01E6CF8FEF8093BB0010920A0186E0AF
:1002300080930B019FCF809100018F5F809300011D
:10024000809100018B3008F487CF85E88093BC0053
:100250008FEF809300010F90DF91CF91FF91EF918D
:10026000BF91AF919F918F917F916F915F914F91CE
:100270003F912F911F910F900FBE0F901F901895D7
:1002800085E88093BC00E7CF02E011E0D0E0C0E059
:10029000CE010E94C301F80181938F012196C430E1
:1002A000D105B1F784E090E00E94C301809306017C
:1002B00085E090E00E94C3018093070186E090E012
:1002C0000E94C3018093080187E090E00E94C3016F
:1002D0008093090188E090E00E94C30180930A01A5
:1002E000811103C081E080930A0189E090E00E94BF
:1002F000C30180930B018AE090E00E94C3018093C8
:100300000C01811103C089E080930C0180E180938E
:10031000BA0085EC8093BC008BB183608BB98AB145
:100320008C7F8AB978943F9A479880910B0190E02E
:100330000097D9F330E020E048B1405848B9FFEFCA
:1003400041EE54E0F15040405040E1F700C0000061
:1003500048B1405848B96FEFE1EEF4E06150E04039
:10036000F040E1F700C000002F5F3F4F8217930776
:1003700018F72FEF43ED50E3215040405040E1F794
:1003800000C00000D2CFF999FECF92BD81BDF89A8E
:10039000992780B50895FB01DC0102C001900D9200
:0C03A00041505040D8F70895F894FFCF6A
:0203AC00FF0050
:00000001FF
