:100000000C9456000C9473000C9473000C947300C1
:100010000C9473000C9473000C9473000C94730094
:100020000C9473000C9473000C9473000C94730084
:100030000C9473000C9473000C9473000C94730074
:100040000C9473000C9473000C9473000C94730064
:100050000C9473000C9473000C9473000C94730054
:100060000C9473000C9473000C9473000C94730044
:100070000C9473000C9473000C9473000C94730034
:100080000C9473000C9473000C9473000C94730024
:100090000C9475000C9473000C9473000C94730012
:1000A0000C9473000C9473000C94730011241FBE05
:1000B000CFEFDAE0DEBFCDBF11E0A0E0B1E0E8EFC6
:1000C000F4E002C005900D92A230B107D9F721E00B
:1000D000A2E0B1E001C01D92AE32B207E1F70E948A
:1000E00044010C947A020C9400001F920F920FB6F8
:1000F0000F9211241F932F933F934F935F936F930E
:100100007F938F939F93AF93BF93EF93FF93CF937F
:10011000DF931F92CDB7DEB78091B900887F803A18
:1001200009F44AC060F4803601F1803829F1811168
:1001300021C085E080930B0110920A011BC0883B0F
:1001400009F479C0803C09F49BC0883A99F4809105
:1001500000018B3008F066C0E0910001F0E0EE5F36
:10016000FE4F80818093BB0005C010922D018FEF60
:100170008093000185EC85C080912D0181110AC01A
:100180008091BB008093000180912D018F5F80934F
:100190002D01F0CF809100018B30B0F780912D01BF
:1001A000813290F7E0912D01E150FF0B8091BB006F
:1001B000E35FFE4F8083E8CF1FB7F8948091000182
:1001C0008B3050F540912D0141508091000150E05D
:1001D000840F952F911D0C97FCF48091000190E005
:1001E0006DE071E08E5F9E4F0E94710210920B01D4
:1001F0001FBF10922D018FEF80930001198289811A
:10020000803208F0B7CFE981F0E0E35FFE4F108263
:1002100089818F5F8983F3CF86E080930B011092F1
:100220000A01E6CF8FEF8093BB0010920A0186E0AF
:1002300080930B019FCF809100018F5F809300011D
:10024000809100018B3008F487CF85E88093BC0053
:100250008FEF809300010F90DF91CF91FF91EF918D
:10026000BF91AF919F918F917F916F915F914F91CE
:100270003F912F911F910F900FBE0F901F901895D7
:1002800085E88093BC00E7CF89E080930C0180E192
:100290008093BA0085EC8093BC008BB183608BB9EE
:1002A0008AB18C7F8AB978943F9A80E090E0AAEF77
:1002B000B3E48093020190930301A0930401B093EF
:1002C00005018FB7F894C0900201D0900301E0902F
:1002D0000401F09005018FBF88B1805888B920E0F3
:1002E00030E040E85FE3C701B6010E94480287FDA5
:1002F000E8CF8FE99FE00197F1F700C0000020E010
:1003000030E040E85FE3C701B6010E948A016B015B
:100310007C01E5CF5058BB27AA270E94A2010C946C
:100320000E020E94000238F00E94070220F039F409
:100330009F3F19F426F40C94FD010EF4E095E7FBC1
:100340000C94F701E92F0E941F0258F3BA176207B5
:1003500073078407950720F079F4A6F50C94410201
:100360000EF4E0950B2EBA2FA02D0B01B9019001D0
:100370000C01CA01A0011124FF27591B99F0593F14
:1003800050F4503E68F11A16F040A22F232F342F5C
:100390004427585FF3CF469537952795A795F040AA
:1003A0005395C9F77EF41F16BA0B620B730B840BBF
:1003B000BAF09150A1F0FF0FBB1F661F771F881F77
:1003C000C2F70EC0BA0F621F731F841F48F48795CF
:1003D00077956795B795F7959E3F08F0B0CF9395C1
:1003E000880F08F09927EE0F97958795089597F94C
:1003F0009F6780E870E060E008959FEF80EC0895CB
:1004000000240A94161617061806090608950024F3
:100410000A9412161306140605060895092E03946D
:10042000000C11F4882352F0BB0F40F4BF2B11F4E1
:1004300060FF04C06F5F7F4F8F4F9F4F089557FD40
:100440009058440F551F59F05F3F71F04795880F42
:1004500097FB991F61F09F3F79F0879508951216D9
:1004600013061406551FF2CF4695F1DF08C0161685
:1004700017061806991FF1CF869571056105089436
:100480000895E894BB2766277727CB0197F908954D
:100490000E944D0208F48FEF0895990F0008550F40
:1004A000AA0BE0E8FEEF16161706E807F907C0F0FA
:1004B00012161306E407F50798F0621B730B840B02
:1004C000950B39F40A2661F0232B242B252B21F4DC
:1004D00008950A2609F4A140A6958FEF811D811D7C
:1004E0000895FB01DC0102C001900D924150504083
:0804F000D8F70895F894FFCF3E
:0204F800FF0003
:00000001FF
