:100000000C9456000C9468000C9468000C946800E2
:100010000C9468000C9468000C9468000C946800C0
:100020000C9468000C9468000C9468000C946800B0
:100030000C9468000C9468000C9468000C946800A0
:100040000C9468000C9468000C9468000C94680090
:100050000C9468000C9468000C9468000C94680080
:100060000C9468000C9468000C9468000C94680070
:100070000C9468000C9468000C9468000C94680060
:100080000C9468000C9468000C9468000C94680050
:100090000C946A000C9468000C9468000C9468003E
:1000A0000C9468000C9468000C94680011241FBE26
:1000B000CFEFDAE0DEBFCDBF21E0A0E0B1E001C0CC
:1000C0001D92A830B207E1F70E9485000C94A800A9
:1000D0000C9400001F920F920FB60F9211248F9371
:1000E0008091B900887F803809F048F484EC8093CF
:1000F000BC008F910F900FBE0F901F901895883AFB
:10010000A9F785E58093BB00F1CF89E080930001DA
:100110008BB183608BB980E18093BA0085E48093D2
:10012000BC0078943F9A479A2FEF81EE94E02150DB
:1001300080409040E1F700C0000047982FEF81EE2B
:1001400094E0215080409040E1F700C00000EBCFE8
:04015000F894FFCF51
:00000001FF
